{
  "_format": "hh-sol-artifact-1",
  "contractName": "NFTMarketplace",
  "sourceName": "contracts/NFTMarket.sol",
  "abi": [
    {
      "inputs": [],
      "stateMutability": "nonpayable",
      "type": "constructor"
    },
    {
      "anonymous": false,
      "inputs": [
        {
          "indexed": true,
          "internalType": "address",
          "name": "owner",
          "type": "address"
        },
        {
          "indexed": true,
          "internalType": "address",
          "name": "approved",
          "type": "address"
        },
        {
          "indexed": true,
          "internalType": "uint256",
          "name": "tokenId",
          "type": "uint256"
        }
      ],
      "name": "Approval",
      "type": "event"
    },
    {
      "anonymous": false,
      "inputs": [
        {
          "indexed": true,
          "internalType": "address",
          "name": "owner",
          "type": "address"
        },
        {
          "indexed": true,
          "internalType": "address",
          "name": "operator",
          "type": "address"
        },
        {
          "indexed": false,
          "internalType": "bool",
          "name": "approved",
          "type": "bool"
        }
      ],
      "name": "ApprovalForAll",
      "type": "event"
    },
    {
      "anonymous": false,
      "inputs": [
        {
          "indexed": true,
          "internalType": "uint256",
          "name": "tokenId",
          "type": "uint256"
        },
        {
          "indexed": false,
          "internalType": "address",
          "name": "owner",
          "type": "address"
        },
        {
          "indexed": false,
          "internalType": "address",
          "name": "seller",
          "type": "address"
        },
        {
          "indexed": false,
          "internalType": "uint256",
          "name": "price",
          "type": "uint256"
        },
        {
          "indexed": false,
          "internalType": "bool",
          "name": "sold",
          "type": "bool"
        }
      ],
      "name": "TokenListedSuccess",
      "type": "event"
    },
    {
      "anonymous": false,
      "inputs": [
        {
          "indexed": true,
          "internalType": "address",
          "name": "from",
          "type": "address"
        },
        {
          "indexed": true,
          "internalType": "address",
          "name": "to",
          "type": "address"
        },
        {
          "indexed": true,
          "internalType": "uint256",
          "name": "tokenId",
          "type": "uint256"
        }
      ],
      "name": "Transfer",
      "type": "event"
    },
    {
      "inputs": [
        {
          "internalType": "address",
          "name": "to",
          "type": "address"
        },
        {
          "internalType": "uint256",
          "name": "tokenId",
          "type": "uint256"
        }
      ],
      "name": "approve",
      "outputs": [],
      "stateMutability": "nonpayable",
      "type": "function"
    },
    {
      "inputs": [
        {
          "internalType": "address",
          "name": "owner",
          "type": "address"
        }
      ],
      "name": "balanceOf",
      "outputs": [
        {
          "internalType": "uint256",
          "name": "",
          "type": "uint256"
        }
      ],
      "stateMutability": "view",
      "type": "function"
    },
    {
      "inputs": [
        {
          "internalType": "string",
          "name": "tokenURI",
          "type": "string"
        },
        {
          "internalType": "uint256",
          "name": "price",
          "type": "uint256"
        }
      ],
      "name": "createToken",
      "outputs": [
        {
          "internalType": "uint256",
          "name": "",
          "type": "uint256"
        }
      ],
      "stateMutability": "payable",
      "type": "function"
    },
    {
      "inputs": [
        {
          "internalType": "uint256",
          "name": "tokenId",
          "type": "uint256"
        }
      ],
      "name": "executeSale",
      "outputs": [],
      "stateMutability": "payable",
      "type": "function"
    },
    {
      "inputs": [],
      "name": "fetchMarketNFTs",
      "outputs": [
        {
          "components": [
            {
              "internalType": "uint256",
              "name": "tokenId",
              "type": "uint256"
            },
            {
              "internalType": "address payable",
              "name": "owner",
              "type": "address"
            },
            {
              "internalType": "address payable",
              "name": "seller",
              "type": "address"
            },
            {
              "internalType": "uint256",
              "name": "price",
              "type": "uint256"
            },
            {
              "internalType": "bool",
              "name": "sold",
              "type": "bool"
            }
          ],
          "internalType": "struct NFTMarketplace.ListedToken[]",
          "name": "",
          "type": "tuple[]"
        }
      ],
      "stateMutability": "view",
      "type": "function"
    },
    {
      "inputs": [],
      "name": "fetchMyListedNFTs",
      "outputs": [
        {
          "components": [
            {
              "internalType": "uint256",
              "name": "tokenId",
              "type": "uint256"
            },
            {
              "internalType": "address payable",
              "name": "owner",
              "type": "address"
            },
            {
              "internalType": "address payable",
              "name": "seller",
              "type": "address"
            },
            {
              "internalType": "uint256",
              "name": "price",
              "type": "uint256"
            },
            {
              "internalType": "bool",
              "name": "sold",
              "type": "bool"
            }
          ],
          "internalType": "struct NFTMarketplace.ListedToken[]",
          "name": "",
          "type": "tuple[]"
        }
      ],
      "stateMutability": "view",
      "type": "function"
    },
    {
      "inputs": [],
      "name": "fetchMyNFTs",
      "outputs": [
        {
          "components": [
            {
              "internalType": "uint256",
              "name": "tokenId",
              "type": "uint256"
            },
            {
              "internalType": "address payable",
              "name": "owner",
              "type": "address"
            },
            {
              "internalType": "address payable",
              "name": "seller",
              "type": "address"
            },
            {
              "internalType": "uint256",
              "name": "price",
              "type": "uint256"
            },
            {
              "internalType": "bool",
              "name": "sold",
              "type": "bool"
            }
          ],
          "internalType": "struct NFTMarketplace.ListedToken[]",
          "name": "",
          "type": "tuple[]"
        }
      ],
      "stateMutability": "view",
      "type": "function"
    },
    {
      "inputs": [
        {
          "internalType": "uint256",
          "name": "tokenId",
          "type": "uint256"
        }
      ],
      "name": "getApproved",
      "outputs": [
        {
          "internalType": "address",
          "name": "",
          "type": "address"
        }
      ],
      "stateMutability": "view",
      "type": "function"
    },
    {
      "inputs": [],
      "name": "getCurrentToken",
      "outputs": [
        {
          "internalType": "uint256",
          "name": "",
          "type": "uint256"
        }
      ],
      "stateMutability": "view",
      "type": "function"
    },
    {
      "inputs": [],
      "name": "getItemSold",
      "outputs": [
        {
          "internalType": "uint256",
          "name": "",
          "type": "uint256"
        }
      ],
      "stateMutability": "view",
      "type": "function"
    },
    {
      "inputs": [],
      "name": "getLatestIdToListedToken",
      "outputs": [
        {
          "components": [
            {
              "internalType": "uint256",
              "name": "tokenId",
              "type": "uint256"
            },
            {
              "internalType": "address payable",
              "name": "owner",
              "type": "address"
            },
            {
              "internalType": "address payable",
              "name": "seller",
              "type": "address"
            },
            {
              "internalType": "uint256",
              "name": "price",
              "type": "uint256"
            },
            {
              "internalType": "bool",
              "name": "sold",
              "type": "bool"
            }
          ],
          "internalType": "struct NFTMarketplace.ListedToken",
          "name": "",
          "type": "tuple"
        }
      ],
      "stateMutability": "view",
      "type": "function"
    },
    {
      "inputs": [],
      "name": "getListPrice",
      "outputs": [
        {
          "internalType": "uint256",
          "name": "",
          "type": "uint256"
        }
      ],
      "stateMutability": "view",
      "type": "function"
    },
    {
      "inputs": [
        {
          "internalType": "uint256",
          "name": "tokenId",
          "type": "uint256"
        }
      ],
      "name": "getListedTokenForId",
      "outputs": [
        {
          "components": [
            {
              "internalType": "uint256",
              "name": "tokenId",
              "type": "uint256"
            },
            {
              "internalType": "address payable",
              "name": "owner",
              "type": "address"
            },
            {
              "internalType": "address payable",
              "name": "seller",
              "type": "address"
            },
            {
              "internalType": "uint256",
              "name": "price",
              "type": "uint256"
            },
            {
              "internalType": "bool",
              "name": "sold",
              "type": "bool"
            }
          ],
          "internalType": "struct NFTMarketplace.ListedToken",
          "name": "",
          "type": "tuple"
        }
      ],
      "stateMutability": "view",
      "type": "function"
    },
    {
      "inputs": [
        {
          "internalType": "uint256",
          "name": "tokenId",
          "type": "uint256"
        }
      ],
      "name": "getOwnerOfToken",
      "outputs": [
        {
          "internalType": "address payable",
          "name": "_owner",
          "type": "address"
        }
      ],
      "stateMutability": "view",
      "type": "function"
    },
    {
      "inputs": [
        {
          "internalType": "address",
          "name": "owner",
          "type": "address"
        },
        {
          "internalType": "address",
          "name": "operator",
          "type": "address"
        }
      ],
      "name": "isApprovedForAll",
      "outputs": [
        {
          "internalType": "bool",
          "name": "",
          "type": "bool"
        }
      ],
      "stateMutability": "view",
      "type": "function"
    },
    {
      "inputs": [],
      "name": "name",
      "outputs": [
        {
          "internalType": "string",
          "name": "",
          "type": "string"
        }
      ],
      "stateMutability": "view",
      "type": "function"
    },
    {
      "inputs": [
        {
          "internalType": "uint256",
          "name": "tokenId",
          "type": "uint256"
        }
      ],
      "name": "ownerOf",
      "outputs": [
        {
          "internalType": "address",
          "name": "",
          "type": "address"
        }
      ],
      "stateMutability": "view",
      "type": "function"
    },
    {
      "inputs": [
        {
          "internalType": "uint256",
          "name": "tokenId",
          "type": "uint256"
        },
        {
          "internalType": "uint256",
          "name": "price",
          "type": "uint256"
        }
      ],
      "name": "resellToken",
      "outputs": [],
      "stateMutability": "payable",
      "type": "function"
    },
    {
      "inputs": [
        {
          "internalType": "address",
          "name": "from",
          "type": "address"
        },
        {
          "internalType": "address",
          "name": "to",
          "type": "address"
        },
        {
          "internalType": "uint256",
          "name": "tokenId",
          "type": "uint256"
        }
      ],
      "name": "safeTransferFrom",
      "outputs": [],
      "stateMutability": "nonpayable",
      "type": "function"
    },
    {
      "inputs": [
        {
          "internalType": "address",
          "name": "from",
          "type": "address"
        },
        {
          "internalType": "address",
          "name": "to",
          "type": "address"
        },
        {
          "internalType": "uint256",
          "name": "tokenId",
          "type": "uint256"
        },
        {
          "internalType": "bytes",
          "name": "data",
          "type": "bytes"
        }
      ],
      "name": "safeTransferFrom",
      "outputs": [],
      "stateMutability": "nonpayable",
      "type": "function"
    },
    {
      "inputs": [
        {
          "internalType": "address",
          "name": "operator",
          "type": "address"
        },
        {
          "internalType": "bool",
          "name": "approved",
          "type": "bool"
        }
      ],
      "name": "setApprovalForAll",
      "outputs": [],
      "stateMutability": "nonpayable",
      "type": "function"
    },
    {
      "inputs": [
        {
          "internalType": "bytes4",
          "name": "interfaceId",
          "type": "bytes4"
        }
      ],
      "name": "supportsInterface",
      "outputs": [
        {
          "internalType": "bool",
          "name": "",
          "type": "bool"
        }
      ],
      "stateMutability": "view",
      "type": "function"
    },
    {
      "inputs": [],
      "name": "symbol",
      "outputs": [
        {
          "internalType": "string",
          "name": "",
          "type": "string"
        }
      ],
      "stateMutability": "view",
      "type": "function"
    },
    {
      "inputs": [
        {
          "internalType": "uint256",
          "name": "tokenId",
          "type": "uint256"
        }
      ],
      "name": "tokenURI",
      "outputs": [
        {
          "internalType": "string",
          "name": "",
          "type": "string"
        }
      ],
      "stateMutability": "view",
      "type": "function"
    },
    {
      "inputs": [
        {
          "internalType": "address",
          "name": "from",
          "type": "address"
        },
        {
          "internalType": "address",
          "name": "to",
          "type": "address"
        },
        {
          "internalType": "uint256",
          "name": "tokenId",
          "type": "uint256"
        }
      ],
      "name": "transferFrom",
      "outputs": [],
      "stateMutability": "nonpayable",
      "type": "function"
    },
    {
      "inputs": [
        {
          "internalType": "uint256",
          "name": "_listPrice",
          "type": "uint256"
        }
      ],
      "name": "updateListPrice",
      "outputs": [],
      "stateMutability": "payable",
      "type": "function"
    }
  ],
  "bytecode": "0x6080604052662386f26fc10000600a553480156200001c57600080fd5b506040518060400160405280600a81526020017f546f6b656e4552373231000000000000000000000000000000000000000000008152506040518060400160405280600481526020017f544e46540000000000000000000000000000000000000000000000000000000081525081600090816200009a919062000370565b508060019081620000ac919062000370565b50505033600960006101000a81548173ffffffffffffffffffffffffffffffffffffffff021916908373ffffffffffffffffffffffffffffffffffffffff16021790555062000457565b600081519050919050565b7f4e487b7100000000000000000000000000000000000000000000000000000000600052604160045260246000fd5b7f4e487b7100000000000000000000000000000000000000000000000000000000600052602260045260246000fd5b600060028204905060018216806200017857607f821691505b6020821081036200018e576200018d62000130565b5b50919050565b60008190508160005260206000209050919050565b60006020601f8301049050919050565b600082821b905092915050565b600060088302620001f87fffffffffffffffffffffffffffffffffffffffffffffffffffffffffffffffff82620001b9565b620002048683620001b9565b95508019841693508086168417925050509392505050565b6000819050919050565b6000819050919050565b6000620002516200024b62000245846200021c565b62000226565b6200021c565b9050919050565b6000819050919050565b6200026d8362000230565b620002856200027c8262000258565b848454620001c6565b825550505050565b600090565b6200029c6200028d565b620002a981848462000262565b505050565b5b81811015620002d157620002c560008262000292565b600181019050620002af565b5050565b601f8211156200032057620002ea8162000194565b620002f584620001a9565b8101602085101562000305578190505b6200031d6200031485620001a9565b830182620002ae565b50505b505050565b600082821c905092915050565b6000620003456000198460080262000325565b1980831691505092915050565b600062000360838362000332565b9150826002028217905092915050565b6200037b82620000f6565b67ffffffffffffffff81111562000397576200039662000101565b5b620003a382546200015f565b620003b0828285620002d5565b600060209050601f831160018114620003e85760008415620003d3578287015190505b620003df858262000352565b8655506200044f565b601f198416620003f88662000194565b60005b828110156200042257848901518255600182019150602085019450602081019050620003fb565b868310156200044257848901516200043e601f89168262000332565b8355505b6001600288020188555050505b505050505050565b61486880620004676000396000f3fe6080604052600436106101815760003560e01c806372b3b620116100d1578063b88d4fde1161008a578063d1a88ae511610064578063d1a88ae514610593578063e219fc75146105be578063e985e9c5146105da578063ef2d17461461061757610181565b8063b88d4fde14610511578063c322579c1461053a578063c87b56dd1461055657610181565b806372b3b620146103f75780637f1dd80b146104275780638e2645901461046457806395d89b41146104a15780639b1225c4146104cc578063a22cb465146104e857610181565b806323b872dd1161013e57806342842e0e1161011857806342842e0e146103295780636352211e1461035257806368f1945f1461038f57806370a08231146103ba57610181565b806323b872dd146102aa5780632565b496146102d357806339547d80146102fe57610181565b806301ffc9a71461018657806306fdde03146101c3578063081812fc146101ee578063095ea7b31461022b5780630e2cb94414610254578063202e37401461027f575b600080fd5b34801561019257600080fd5b506101ad60048036038101906101a8919061307b565b610642565b6040516101ba91906130c3565b60405180910390f35b3480156101cf57600080fd5b506101d8610724565b6040516101e5919061316e565b60405180910390f35b3480156101fa57600080fd5b50610215600480360381019061021091906131c6565b6107b6565b6040516102229190613234565b60405180910390f35b34801561023757600080fd5b50610252600480360381019061024d919061327b565b6107fc565b005b34801561026057600080fd5b50610269610913565b6040516102769190613411565b60405180910390f35b34801561028b57600080fd5b50610294610be1565b6040516102a19190613411565b60405180910390f35b3480156102b657600080fd5b506102d160048036038101906102cc9190613433565b610f89565b005b3480156102df57600080fd5b506102e8610fe9565b6040516102f59190613411565b60405180910390f35b34801561030a57600080fd5b50610313611219565b6040516103209190613495565b60405180910390f35b34801561033557600080fd5b50610350600480360381019061034b9190613433565b61122a565b005b34801561035e57600080fd5b50610379600480360381019061037491906131c6565b61124a565b6040516103869190613234565b60405180910390f35b34801561039b57600080fd5b506103a46112d0565b6040516103b19190613495565b60405180910390f35b3480156103c657600080fd5b506103e160048036038101906103dc91906134b0565b6112da565b6040516103ee9190613495565b60405180910390f35b610411600480360381019061040c9190613612565b611391565b60405161041e9190613495565b60405180910390f35b34801561043357600080fd5b5061044e600480360381019061044991906131c6565b6113d3565b60405161045b919061367d565b60405180910390f35b34801561047057600080fd5b5061048b600480360381019061048691906131c6565b611413565b6040516104989190613700565b60405180910390f35b3480156104ad57600080fd5b506104b661151b565b6040516104c3919061316e565b60405180910390f35b6104e660048036038101906104e191906131c6565b6115ad565b005b3480156104f457600080fd5b5061050f600480360381019061050a9190613747565b611837565b005b34801561051d57600080fd5b5061053860048036038101906105339190613828565b61184d565b005b610554600480360381019061054f91906131c6565b6118af565b005b34801561056257600080fd5b5061057d600480360381019061057891906131c6565b611949565b60405161058a919061316e565b60405180910390f35b34801561059f57600080fd5b506105a8611a5b565b6040516105b59190613700565b60405180910390f35b6105d860048036038101906105d391906138ab565b611b70565b005b3480156105e657600080fd5b5061060160048036038101906105fc91906138eb565b611de7565b60405161060e91906130c3565b60405180910390f35b34801561062357600080fd5b5061062c611e7b565b6040516106399190613495565b60405180910390f35b60007f80ac58cd000000000000000000000000000000000000000000000000000000007bffffffffffffffffffffffffffffffffffffffffffffffffffffffff1916827bffffffffffffffffffffffffffffffffffffffffffffffffffffffff1916148061070d57507f5b5e139f000000000000000000000000000000000000000000000000000000007bffffffffffffffffffffffffffffffffffffffffffffffffffffffff1916827bffffffffffffffffffffffffffffffffffffffffffffffffffffffff1916145b8061071d575061071c82611e8c565b5b9050919050565b6060600080546107339061395a565b80601f016020809104026020016040519081016040528092919081815260200182805461075f9061395a565b80156107ac5780601f10610781576101008083540402835291602001916107ac565b820191906000526020600020905b81548152906001019060200180831161078f57829003601f168201915b5050505050905090565b60006107c182611ef6565b6004600083815260200190815260200160002060009054906101000a900473ffffffffffffffffffffffffffffffffffffffff169050919050565b60006108078261124a565b90508073ffffffffffffffffffffffffffffffffffffffff168373ffffffffffffffffffffffffffffffffffffffff1603610877576040517f08c379a000000000000000000000000000000000000000000000000000000000815260040161086e906139fd565b60405180910390fd5b8073ffffffffffffffffffffffffffffffffffffffff16610896611f41565b73ffffffffffffffffffffffffffffffffffffffff1614806108c557506108c4816108bf611f41565b611de7565b5b610904576040517f08c379a00000000000000000000000000000000000000000000000000000000081526004016108fb90613a8f565b60405180910390fd5b61090e8383611f49565b505050565b606060006109216007612002565b90506000806000600190505b838110156109c0573373ffffffffffffffffffffffffffffffffffffffff16600b600083815260200190815260200160002060020160009054906101000a900473ffffffffffffffffffffffffffffffffffffffff1673ffffffffffffffffffffffffffffffffffffffff16036109ad5782806109a990613ade565b9350505b80806109b890613ade565b91505061092d565b5060008267ffffffffffffffff8111156109dd576109dc6134e7565b5b604051908082528060200260200182016040528015610a1657816020015b610a03612fb2565b8152602001906001900390816109fb5790505b5090506000600190505b84811015610bd6573373ffffffffffffffffffffffffffffffffffffffff16600b600083815260200190815260200160002060020160009054906101000a900473ffffffffffffffffffffffffffffffffffffffff1673ffffffffffffffffffffffffffffffffffffffff1603610bc35760008190506000600b60008381526020019081526020016000209050806040518060a0016040529081600082015481526020016001820160009054906101000a900473ffffffffffffffffffffffffffffffffffffffff1673ffffffffffffffffffffffffffffffffffffffff1673ffffffffffffffffffffffffffffffffffffffff1681526020016002820160009054906101000a900473ffffffffffffffffffffffffffffffffffffffff1673ffffffffffffffffffffffffffffffffffffffff1673ffffffffffffffffffffffffffffffffffffffff168152602001600382015481526020016004820160009054906101000a900460ff161515151581525050848681518110610ba757610ba6613b26565b5b60200260200101819052508480610bbd90613ade565b95505050505b8080610bce90613ade565b915050610a20565b508094505050505090565b60606000610bef6007612002565b90506000806000600190505b83811015610cfb573373ffffffffffffffffffffffffffffffffffffffff16600b600083815260200190815260200160002060010160009054906101000a900473ffffffffffffffffffffffffffffffffffffffff1673ffffffffffffffffffffffffffffffffffffffff161480610cd457503373ffffffffffffffffffffffffffffffffffffffff16600b600083815260200190815260200160002060020160009054906101000a900473ffffffffffffffffffffffffffffffffffffffff1673ffffffffffffffffffffffffffffffffffffffff16145b15610ce8578280610ce490613ade565b9350505b8080610cf390613ade565b915050610bfb565b5060008267ffffffffffffffff811115610d1857610d176134e7565b5b604051908082528060200260200182016040528015610d5157816020015b610d3e612fb2565b815260200190600190039081610d365790505b5090506000600190505b84811015610f7e573373ffffffffffffffffffffffffffffffffffffffff16600b600083815260200190815260200160002060010160009054906101000a900473ffffffffffffffffffffffffffffffffffffffff1673ffffffffffffffffffffffffffffffffffffffff161480610e3457503373ffffffffffffffffffffffffffffffffffffffff16600b600083815260200190815260200160002060020160009054906101000a900473ffffffffffffffffffffffffffffffffffffffff1673ffffffffffffffffffffffffffffffffffffffff16145b15610f6b5760008190506000600b60008381526020019081526020016000209050806040518060a0016040529081600082015481526020016001820160009054906101000a900473ffffffffffffffffffffffffffffffffffffffff1673ffffffffffffffffffffffffffffffffffffffff1673ffffffffffffffffffffffffffffffffffffffff1681526020016002820160009054906101000a900473ffffffffffffffffffffffffffffffffffffffff1673ffffffffffffffffffffffffffffffffffffffff1673ffffffffffffffffffffffffffffffffffffffff168152602001600382015481526020016004820160009054906101000a900460ff161515151581525050848681518110610f4f57610f4e613b26565b5b60200260200101819052508480610f6590613ade565b95505050505b8080610f7690613ade565b915050610d5b565b508094505050505090565b610f9a610f94611f41565b82612010565b610fd9576040517f08c379a0000000000000000000000000000000000000000000000000000000008152600401610fd090613bc7565b60405180910390fd5b610fe48383836120a5565b505050565b60606000610ff76007612002565b90506000808267ffffffffffffffff811115611016576110156134e7565b5b60405190808252806020026020018201604052801561104f57816020015b61103c612fb2565b8152602001906001900390816110345790505b5090506000600190505b8381101561120f573073ffffffffffffffffffffffffffffffffffffffff16600b600083815260200190815260200160002060010160009054906101000a900473ffffffffffffffffffffffffffffffffffffffff1673ffffffffffffffffffffffffffffffffffffffff16036111fc5760008190506000600b60008381526020019081526020016000209050806040518060a0016040529081600082015481526020016001820160009054906101000a900473ffffffffffffffffffffffffffffffffffffffff1673ffffffffffffffffffffffffffffffffffffffff1673ffffffffffffffffffffffffffffffffffffffff1681526020016002820160009054906101000a900473ffffffffffffffffffffffffffffffffffffffff1673ffffffffffffffffffffffffffffffffffffffff1673ffffffffffffffffffffffffffffffffffffffff168152602001600382015481526020016004820160009054906101000a900460ff1615151515815250508486815181106111e0576111df613b26565b5b602002602001018190525084806111f690613ade565b95505050505b808061120790613ade565b915050611059565b5080935050505090565b60006112256008612002565b905090565b6112458383836040518060200160405280600081525061184d565b505050565b6000806112568361239e565b9050600073ffffffffffffffffffffffffffffffffffffffff168173ffffffffffffffffffffffffffffffffffffffff16036112c7576040517f08c379a00000000000000000000000000000000000000000000000000000000081526004016112be90613c33565b60405180910390fd5b80915050919050565b6000600a54905090565b60008073ffffffffffffffffffffffffffffffffffffffff168273ffffffffffffffffffffffffffffffffffffffff160361134a576040517f08c379a000000000000000000000000000000000000000000000000000000000815260040161134190613cc5565b60405180910390fd5b600360008373ffffffffffffffffffffffffffffffffffffffff1673ffffffffffffffffffffffffffffffffffffffff168152602001908152602001600020549050919050565b600061139d60076123db565b60006113a96007612002565b90506113b533826123f1565b6113bf818561240f565b6113c9818461247c565b8091505092915050565b6000600b600083815260200190815260200160002060010160009054906101000a900473ffffffffffffffffffffffffffffffffffffffff169050919050565b61141b612fb2565b600b60008381526020019081526020016000206040518060a0016040529081600082015481526020016001820160009054906101000a900473ffffffffffffffffffffffffffffffffffffffff1673ffffffffffffffffffffffffffffffffffffffff1673ffffffffffffffffffffffffffffffffffffffff1681526020016002820160009054906101000a900473ffffffffffffffffffffffffffffffffffffffff1673ffffffffffffffffffffffffffffffffffffffff1673ffffffffffffffffffffffffffffffffffffffff168152602001600382015481526020016004820160009054906101000a900460ff1615151515815250509050919050565b60606001805461152a9061395a565b80601f01602080910402602001604051908101604052809291908181526020018280546115569061395a565b80156115a35780601f10611578576101008083540402835291602001916115a3565b820191906000526020600020905b81548152906001019060200180831161158657829003601f168201915b5050505050905090565b6000600b600083815260200190815260200160002060030154905080341461160a576040517f08c379a000000000000000000000000000000000000000000000000000000000815260040161160190613d31565b60405180910390fd5b6000600b600084815260200190815260200160002060020160009054906101000a900473ffffffffffffffffffffffffffffffffffffffff169050813414611687576040517f08c379a000000000000000000000000000000000000000000000000000000000815260040161167e90613dc3565b60405180910390fd5b33600b600085815260200190815260200160002060010160006101000a81548173ffffffffffffffffffffffffffffffffffffffff021916908373ffffffffffffffffffffffffffffffffffffffff1602179055506001600b600085815260200190815260200160002060040160006101000a81548160ff0219169083151502179055506000600b600085815260200190815260200160002060020160006101000a81548173ffffffffffffffffffffffffffffffffffffffff021916908373ffffffffffffffffffffffffffffffffffffffff16021790555061176b60086123db565b6117763033856120a5565b61178030846107fc565b600960009054906101000a900473ffffffffffffffffffffffffffffffffffffffff1673ffffffffffffffffffffffffffffffffffffffff166108fc600a549081150290604051600060405180830381858888f193505050501580156117ea573d6000803e3d6000fd5b508073ffffffffffffffffffffffffffffffffffffffff166108fc349081150290604051600060405180830381858888f19350505050158015611831573d6000803e3d6000fd5b50505050565b611849611842611f41565b838361267f565b5050565b61185e611858611f41565b83612010565b61189d576040517f08c379a000000000000000000000000000000000000000000000000000000000815260040161189490613bc7565b60405180910390fd5b6118a9848484846127eb565b50505050565b3373ffffffffffffffffffffffffffffffffffffffff16600960009054906101000a900473ffffffffffffffffffffffffffffffffffffffff1673ffffffffffffffffffffffffffffffffffffffff161461193f576040517f08c379a000000000000000000000000000000000000000000000000000000000815260040161193690613e55565b60405180910390fd5b80600a8190555050565b606061195482611ef6565b60006006600084815260200190815260200160002080546119749061395a565b80601f01602080910402602001604051908101604052809291908181526020018280546119a09061395a565b80156119ed5780601f106119c2576101008083540402835291602001916119ed565b820191906000526020600020905b8154815290600101906020018083116119d057829003601f168201915b5050505050905060006119fe612847565b90506000815103611a13578192505050611a56565b600082511115611a48578082604051602001611a30929190613eb1565b60405160208183030381529060405292505050611a56565b611a518461285e565b925050505b919050565b611a63612fb2565b6000611a6f6007612002565b9050600b60008281526020019081526020016000206040518060a0016040529081600082015481526020016001820160009054906101000a900473ffffffffffffffffffffffffffffffffffffffff1673ffffffffffffffffffffffffffffffffffffffff1673ffffffffffffffffffffffffffffffffffffffff1681526020016002820160009054906101000a900473ffffffffffffffffffffffffffffffffffffffff1673ffffffffffffffffffffffffffffffffffffffff1673ffffffffffffffffffffffffffffffffffffffff168152602001600382015481526020016004820160009054906101000a900460ff16151515158152505091505090565b3373ffffffffffffffffffffffffffffffffffffffff16600b600084815260200190815260200160002060010160009054906101000a900473ffffffffffffffffffffffffffffffffffffffff1673ffffffffffffffffffffffffffffffffffffffff1614611c14576040517f08c379a0000000000000000000000000000000000000000000000000000000008152600401611c0b90613f47565b60405180910390fd5b600a543414611c58576040517f08c379a0000000000000000000000000000000000000000000000000000000008152600401611c4f90613fd9565b60405180910390fd5b60008111611c9b576040517f08c379a0000000000000000000000000000000000000000000000000000000008152600401611c9290614045565b60405180910390fd5b6000600b600084815260200190815260200160002060040160006101000a81548160ff02191690831515021790555080600b60008481526020019081526020016000206003018190555033600b600084815260200190815260200160002060020160006101000a81548173ffffffffffffffffffffffffffffffffffffffff021916908373ffffffffffffffffffffffffffffffffffffffff16021790555030600b600084815260200190815260200160002060010160006101000a81548173ffffffffffffffffffffffffffffffffffffffff021916908373ffffffffffffffffffffffffffffffffffffffff160217905550611d9960086128c6565b611da43330846120a5565b817f9339409317fd01fabff48b703019016f49159bacc801ae872d2ca637d226e4c03033846000604051611ddb9493929190614065565b60405180910390a25050565b6000600560008473ffffffffffffffffffffffffffffffffffffffff1673ffffffffffffffffffffffffffffffffffffffff16815260200190815260200160002060008373ffffffffffffffffffffffffffffffffffffffff1673ffffffffffffffffffffffffffffffffffffffff16815260200190815260200160002060009054906101000a900460ff16905092915050565b6000611e876007612002565b905090565b60007f01ffc9a7000000000000000000000000000000000000000000000000000000007bffffffffffffffffffffffffffffffffffffffffffffffffffffffff1916827bffffffffffffffffffffffffffffffffffffffffffffffffffffffff1916149050919050565b611eff81612922565b611f3e576040517f08c379a0000000000000000000000000000000000000000000000000000000008152600401611f3590613c33565b60405180910390fd5b50565b600033905090565b816004600083815260200190815260200160002060006101000a81548173ffffffffffffffffffffffffffffffffffffffff021916908373ffffffffffffffffffffffffffffffffffffffff160217905550808273ffffffffffffffffffffffffffffffffffffffff16611fbc8361124a565b73ffffffffffffffffffffffffffffffffffffffff167f8c5be1e5ebec7d5bd14f71427d1e84f3dd0314c0f7b2291e5b200ac8c7c3b92560405160405180910390a45050565b600081600001549050919050565b60008061201c8361124a565b90508073ffffffffffffffffffffffffffffffffffffffff168473ffffffffffffffffffffffffffffffffffffffff16148061205e575061205d8185611de7565b5b8061209c57508373ffffffffffffffffffffffffffffffffffffffff16612084846107b6565b73ffffffffffffffffffffffffffffffffffffffff16145b91505092915050565b8273ffffffffffffffffffffffffffffffffffffffff166120c58261124a565b73ffffffffffffffffffffffffffffffffffffffff161461211b576040517f08c379a00000000000000000000000000000000000000000000000000000000081526004016121129061411c565b60405180910390fd5b600073ffffffffffffffffffffffffffffffffffffffff168273ffffffffffffffffffffffffffffffffffffffff160361218a576040517f08c379a0000000000000000000000000000000000000000000000000000000008152600401612181906141ae565b60405180910390fd5b6121978383836001612963565b8273ffffffffffffffffffffffffffffffffffffffff166121b78261124a565b73ffffffffffffffffffffffffffffffffffffffff161461220d576040517f08c379a00000000000000000000000000000000000000000000000000000000081526004016122049061411c565b60405180910390fd5b6004600082815260200190815260200160002060006101000a81549073ffffffffffffffffffffffffffffffffffffffff02191690556001600360008573ffffffffffffffffffffffffffffffffffffffff1673ffffffffffffffffffffffffffffffffffffffff168152602001908152602001600020600082825403925050819055506001600360008473ffffffffffffffffffffffffffffffffffffffff1673ffffffffffffffffffffffffffffffffffffffff16815260200190815260200160002060008282540192505081905550816002600083815260200190815260200160002060006101000a81548173ffffffffffffffffffffffffffffffffffffffff021916908373ffffffffffffffffffffffffffffffffffffffff160217905550808273ffffffffffffffffffffffffffffffffffffffff168473ffffffffffffffffffffffffffffffffffffffff167fddf252ad1be2c89b69c2b068fc378daa952ba7f163c4a11628f55a4df523b3ef60405160405180910390a46123998383836001612969565b505050565b60006002600083815260200190815260200160002060009054906101000a900473ffffffffffffffffffffffffffffffffffffffff169050919050565b6001816000016000828254019250508190555050565b61240b82826040518060200160405280600081525061296f565b5050565b61241882612922565b612457576040517f08c379a000000000000000000000000000000000000000000000000000000000815260040161244e90614240565b60405180910390fd5b80600660008481526020019081526020016000209081612477919061440c565b505050565b600a5434146124c0576040517f08c379a00000000000000000000000000000000000000000000000000000000081526004016124b790613fd9565b60405180910390fd5b60008111612503576040517f08c379a00000000000000000000000000000000000000000000000000000000081526004016124fa90614045565b60405180910390fd5b6040518060a001604052808381526020013073ffffffffffffffffffffffffffffffffffffffff1681526020013373ffffffffffffffffffffffffffffffffffffffff16815260200182815260200160001515815250600b60008481526020019081526020016000206000820151816000015560208201518160010160006101000a81548173ffffffffffffffffffffffffffffffffffffffff021916908373ffffffffffffffffffffffffffffffffffffffff16021790555060408201518160020160006101000a81548173ffffffffffffffffffffffffffffffffffffffff021916908373ffffffffffffffffffffffffffffffffffffffff1602179055506060820151816003015560808201518160040160006101000a81548160ff02191690831515021790555090505061263c3330846120a5565b817f9339409317fd01fabff48b703019016f49159bacc801ae872d2ca637d226e4c030338460006040516126739493929190614065565b60405180910390a25050565b8173ffffffffffffffffffffffffffffffffffffffff168373ffffffffffffffffffffffffffffffffffffffff16036126ed576040517f08c379a00000000000000000000000000000000000000000000000000000000081526004016126e49061452a565b60405180910390fd5b80600560008573ffffffffffffffffffffffffffffffffffffffff1673ffffffffffffffffffffffffffffffffffffffff16815260200190815260200160002060008473ffffffffffffffffffffffffffffffffffffffff1673ffffffffffffffffffffffffffffffffffffffff16815260200190815260200160002060006101000a81548160ff0219169083151502179055508173ffffffffffffffffffffffffffffffffffffffff168373ffffffffffffffffffffffffffffffffffffffff167f17307eab39ab6107e8899845ad3d59bd9653f200f220920489ca2b5937696c31836040516127de91906130c3565b60405180910390a3505050565b6127f68484846120a5565b612802848484846129ca565b612841576040517f08c379a0000000000000000000000000000000000000000000000000000000008152600401612838906145bc565b60405180910390fd5b50505050565b606060405180602001604052806000815250905090565b606061286982611ef6565b6000612873612847565b9050600081511161289357604051806020016040528060008152506128be565b8061289d84612b51565b6040516020016128ae929190613eb1565b6040516020818303038152906040525b915050919050565b60008160000154905060008111612912576040517f08c379a000000000000000000000000000000000000000000000000000000000815260040161290990614628565b60405180910390fd5b6001810382600001819055505050565b60008073ffffffffffffffffffffffffffffffffffffffff166129448361239e565b73ffffffffffffffffffffffffffffffffffffffff1614159050919050565b50505050565b50505050565b6129798383612c1f565b61298660008484846129ca565b6129c5576040517f08c379a00000000000000000000000000000000000000000000000000000000081526004016129bc906145bc565b60405180910390fd5b505050565b60006129eb8473ffffffffffffffffffffffffffffffffffffffff16612e3c565b15612b44578373ffffffffffffffffffffffffffffffffffffffff1663150b7a02612a14611f41565b8786866040518563ffffffff1660e01b8152600401612a36949392919061469d565b6020604051808303816000875af1925050508015612a7257506040513d601f19601f82011682018060405250810190612a6f91906146fe565b60015b612af4573d8060008114612aa2576040519150601f19603f3d011682016040523d82523d6000602084013e612aa7565b606091505b506000815103612aec576040517f08c379a0000000000000000000000000000000000000000000000000000000008152600401612ae3906145bc565b60405180910390fd5b805181602001fd5b63150b7a0260e01b7bffffffffffffffffffffffffffffffffffffffffffffffffffffffff1916817bffffffffffffffffffffffffffffffffffffffffffffffffffffffff191614915050612b49565b600190505b949350505050565b606060006001612b6084612e5f565b01905060008167ffffffffffffffff811115612b7f57612b7e6134e7565b5b6040519080825280601f01601f191660200182016040528015612bb15781602001600182028036833780820191505090505b509050600082602001820190505b600115612c14578080600190039150507f3031323334353637383961626364656600000000000000000000000000000000600a86061a8153600a8581612c0857612c0761472b565b5b04945060008503612bbf575b819350505050919050565b600073ffffffffffffffffffffffffffffffffffffffff168273ffffffffffffffffffffffffffffffffffffffff1603612c8e576040517f08c379a0000000000000000000000000000000000000000000000000000000008152600401612c85906147a6565b60405180910390fd5b612c9781612922565b15612cd7576040517f08c379a0000000000000000000000000000000000000000000000000000000008152600401612cce90614812565b60405180910390fd5b612ce5600083836001612963565b612cee81612922565b15612d2e576040517f08c379a0000000000000000000000000000000000000000000000000000000008152600401612d2590614812565b60405180910390fd5b6001600360008473ffffffffffffffffffffffffffffffffffffffff1673ffffffffffffffffffffffffffffffffffffffff16815260200190815260200160002060008282540192505081905550816002600083815260200190815260200160002060006101000a81548173ffffffffffffffffffffffffffffffffffffffff021916908373ffffffffffffffffffffffffffffffffffffffff160217905550808273ffffffffffffffffffffffffffffffffffffffff16600073ffffffffffffffffffffffffffffffffffffffff167fddf252ad1be2c89b69c2b068fc378daa952ba7f163c4a11628f55a4df523b3ef60405160405180910390a4612e38600083836001612969565b5050565b6000808273ffffffffffffffffffffffffffffffffffffffff163b119050919050565b600080600090507a184f03e93ff9f4daa797ed6e38ed64bf6a1f0100000000000000008310612ebd577a184f03e93ff9f4daa797ed6e38ed64bf6a1f0100000000000000008381612eb357612eb261472b565b5b0492506040810190505b6d04ee2d6d415b85acef81000000008310612efa576d04ee2d6d415b85acef81000000008381612ef057612eef61472b565b5b0492506020810190505b662386f26fc100008310612f2957662386f26fc100008381612f1f57612f1e61472b565b5b0492506010810190505b6305f5e1008310612f52576305f5e1008381612f4857612f4761472b565b5b0492506008810190505b6127108310612f77576127108381612f6d57612f6c61472b565b5b0492506004810190505b60648310612f9a5760648381612f9057612f8f61472b565b5b0492506002810190505b600a8310612fa9576001810190505b80915050919050565b6040518060a0016040528060008152602001600073ffffffffffffffffffffffffffffffffffffffff168152602001600073ffffffffffffffffffffffffffffffffffffffff168152602001600081526020016000151581525090565b6000604051905090565b600080fd5b600080fd5b60007fffffffff0000000000000000000000000000000000000000000000000000000082169050919050565b61305881613023565b811461306357600080fd5b50565b6000813590506130758161304f565b92915050565b60006020828403121561309157613090613019565b5b600061309f84828501613066565b91505092915050565b60008115159050919050565b6130bd816130a8565b82525050565b60006020820190506130d860008301846130b4565b92915050565b600081519050919050565b600082825260208201905092915050565b60005b838110156131185780820151818401526020810190506130fd565b60008484015250505050565b6000601f19601f8301169050919050565b6000613140826130de565b61314a81856130e9565b935061315a8185602086016130fa565b61316381613124565b840191505092915050565b600060208201905081810360008301526131888184613135565b905092915050565b6000819050919050565b6131a381613190565b81146131ae57600080fd5b50565b6000813590506131c08161319a565b92915050565b6000602082840312156131dc576131db613019565b5b60006131ea848285016131b1565b91505092915050565b600073ffffffffffffffffffffffffffffffffffffffff82169050919050565b600061321e826131f3565b9050919050565b61322e81613213565b82525050565b60006020820190506132496000830184613225565b92915050565b61325881613213565b811461326357600080fd5b50565b6000813590506132758161324f565b92915050565b6000806040838503121561329257613291613019565b5b60006132a085828601613266565b92505060206132b1858286016131b1565b9150509250929050565b600081519050919050565b600082825260208201905092915050565b6000819050602082019050919050565b6132f081613190565b82525050565b6000613301826131f3565b9050919050565b613311816132f6565b82525050565b613320816130a8565b82525050565b60a08201600082015161333c60008501826132e7565b50602082015161334f6020850182613308565b5060408201516133626040850182613308565b50606082015161337560608501826132e7565b5060808201516133886080850182613317565b50505050565b600061339a8383613326565b60a08301905092915050565b6000602082019050919050565b60006133be826132bb565b6133c881856132c6565b93506133d3836132d7565b8060005b838110156134045781516133eb888261338e565b97506133f6836133a6565b9250506001810190506133d7565b5085935050505092915050565b6000602082019050818103600083015261342b81846133b3565b905092915050565b60008060006060848603121561344c5761344b613019565b5b600061345a86828701613266565b935050602061346b86828701613266565b925050604061347c868287016131b1565b9150509250925092565b61348f81613190565b82525050565b60006020820190506134aa6000830184613486565b92915050565b6000602082840312156134c6576134c5613019565b5b60006134d484828501613266565b91505092915050565b600080fd5b600080fd5b7f4e487b7100000000000000000000000000000000000000000000000000000000600052604160045260246000fd5b61351f82613124565b810181811067ffffffffffffffff8211171561353e5761353d6134e7565b5b80604052505050565b600061355161300f565b905061355d8282613516565b919050565b600067ffffffffffffffff82111561357d5761357c6134e7565b5b61358682613124565b9050602081019050919050565b82818337600083830152505050565b60006135b56135b084613562565b613547565b9050828152602081018484840111156135d1576135d06134e2565b5b6135dc848285613593565b509392505050565b600082601f8301126135f9576135f86134dd565b5b81356136098482602086016135a2565b91505092915050565b6000806040838503121561362957613628613019565b5b600083013567ffffffffffffffff8111156136475761364661301e565b5b613653858286016135e4565b9250506020613664858286016131b1565b9150509250929050565b613677816132f6565b82525050565b6000602082019050613692600083018461366e565b92915050565b60a0820160008201516136ae60008501826132e7565b5060208201516136c16020850182613308565b5060408201516136d46040850182613308565b5060608201516136e760608501826132e7565b5060808201516136fa6080850182613317565b50505050565b600060a0820190506137156000830184613698565b92915050565b613724816130a8565b811461372f57600080fd5b50565b6000813590506137418161371b565b92915050565b6000806040838503121561375e5761375d613019565b5b600061376c85828601613266565b925050602061377d85828601613732565b9150509250929050565b600067ffffffffffffffff8211156137a2576137a16134e7565b5b6137ab82613124565b9050602081019050919050565b60006137cb6137c684613787565b613547565b9050828152602081018484840111156137e7576137e66134e2565b5b6137f2848285613593565b509392505050565b600082601f83011261380f5761380e6134dd565b5b813561381f8482602086016137b8565b91505092915050565b6000806000806080858703121561384257613841613019565b5b600061385087828801613266565b945050602061386187828801613266565b9350506040613872878288016131b1565b925050606085013567ffffffffffffffff8111156138935761389261301e565b5b61389f878288016137fa565b91505092959194509250565b600080604083850312156138c2576138c1613019565b5b60006138d0858286016131b1565b92505060206138e1858286016131b1565b9150509250929050565b6000806040838503121561390257613901613019565b5b600061391085828601613266565b925050602061392185828601613266565b9150509250929050565b7f4e487b7100000000000000000000000000000000000000000000000000000000600052602260045260246000fd5b6000600282049050600182168061397257607f821691505b6020821081036139855761398461392b565b5b50919050565b7f4552433732313a20617070726f76616c20746f2063757272656e74206f776e6560008201527f7200000000000000000000000000000000000000000000000000000000000000602082015250565b60006139e76021836130e9565b91506139f28261398b565b604082019050919050565b60006020820190508181036000830152613a16816139da565b9050919050565b7f4552433732313a20617070726f76652063616c6c6572206973206e6f7420746f60008201527f6b656e206f776e6572206f7220617070726f76656420666f7220616c6c000000602082015250565b6000613a79603d836130e9565b9150613a8482613a1d565b604082019050919050565b60006020820190508181036000830152613aa881613a6c565b9050919050565b7f4e487b7100000000000000000000000000000000000000000000000000000000600052601160045260246000fd5b6000613ae982613190565b91507fffffffffffffffffffffffffffffffffffffffffffffffffffffffffffffffff8203613b1b57613b1a613aaf565b5b600182019050919050565b7f4e487b7100000000000000000000000000000000000000000000000000000000600052603260045260246000fd5b7f4552433732313a2063616c6c6572206973206e6f7420746f6b656e206f776e6560008201527f72206f7220617070726f76656400000000000000000000000000000000000000602082015250565b6000613bb1602d836130e9565b9150613bbc82613b55565b604082019050919050565b60006020820190508181036000830152613be081613ba4565b9050919050565b7f4552433732313a20696e76616c696420746f6b656e2049440000000000000000600082015250565b6000613c1d6018836130e9565b9150613c2882613be7565b602082019050919050565b60006020820190508181036000830152613c4c81613c10565b9050919050565b7f4552433732313a2061646472657373207a65726f206973206e6f74206120766160008201527f6c6964206f776e65720000000000000000000000000000000000000000000000602082015250565b6000613caf6029836130e9565b9150613cba82613c53565b604082019050919050565b60006020820190508181036000830152613cde81613ca2565b9050919050565b7f5072696365206d75737420626520657175616c20746f20707269636500000000600082015250565b6000613d1b601c836130e9565b9150613d2682613ce5565b602082019050919050565b60006020820190508181036000830152613d4a81613d0e565b9050919050565b7f506c65617365207375626d6974207468652061736b696e67207072696365206960008201527f6e206f7264657220746f20636f6d706c65746520746865207075726368617365602082015250565b6000613dad6040836130e9565b9150613db882613d51565b604082019050919050565b60006020820190508181036000830152613ddc81613da0565b9050919050565b7f4f6e6c79206f776e65722063616e20757064617465206c697374696e6720707260008201527f6963650000000000000000000000000000000000000000000000000000000000602082015250565b6000613e3f6023836130e9565b9150613e4a82613de3565b604082019050919050565b60006020820190508181036000830152613e6e81613e32565b9050919050565b600081905092915050565b6000613e8b826130de565b613e958185613e75565b9350613ea58185602086016130fa565b80840191505092915050565b6000613ebd8285613e80565b9150613ec98284613e80565b91508190509392505050565b7f4f6e6c79206974656d206f776e65722063616e20706572666f726d207468697360008201527f206f7065726174696f6e00000000000000000000000000000000000000000000602082015250565b6000613f31602a836130e9565b9150613f3c82613ed5565b604082019050919050565b60006020820190508181036000830152613f6081613f24565b9050919050565b7f5072696365206d75737420626520657175616c20746f206c697374696e67207060008201527f7269636500000000000000000000000000000000000000000000000000000000602082015250565b6000613fc36024836130e9565b9150613fce82613f67565b604082019050919050565b60006020820190508181036000830152613ff281613fb6565b9050919050565b7f5072696365206d757374206265206174206c6561737420312077656900000000600082015250565b600061402f601c836130e9565b915061403a82613ff9565b602082019050919050565b6000602082019050818103600083015261405e81614022565b9050919050565b600060808201905061407a6000830187613225565b6140876020830186613225565b6140946040830185613486565b6140a160608301846130b4565b95945050505050565b7f4552433732313a207472616e736665722066726f6d20696e636f72726563742060008201527f6f776e6572000000000000000000000000000000000000000000000000000000602082015250565b60006141066025836130e9565b9150614111826140aa565b604082019050919050565b60006020820190508181036000830152614135816140f9565b9050919050565b7f4552433732313a207472616e7366657220746f20746865207a65726f2061646460008201527f7265737300000000000000000000000000000000000000000000000000000000602082015250565b60006141986024836130e9565b91506141a38261413c565b604082019050919050565b600060208201905081810360008301526141c78161418b565b9050919050565b7f45524337323155524953746f726167653a2055524920736574206f66206e6f6e60008201527f6578697374656e7420746f6b656e000000000000000000000000000000000000602082015250565b600061422a602e836130e9565b9150614235826141ce565b604082019050919050565b600060208201905081810360008301526142598161421d565b9050919050565b60008190508160005260206000209050919050565b60006020601f8301049050919050565b600082821b905092915050565b6000600883026142c27fffffffffffffffffffffffffffffffffffffffffffffffffffffffffffffffff82614285565b6142cc8683614285565b95508019841693508086168417925050509392505050565b6000819050919050565b60006143096143046142ff84613190565b6142e4565b613190565b9050919050565b6000819050919050565b614323836142ee565b61433761432f82614310565b848454614292565b825550505050565b600090565b61434c61433f565b61435781848461431a565b505050565b5b8181101561437b57614370600082614344565b60018101905061435d565b5050565b601f8211156143c05761439181614260565b61439a84614275565b810160208510156143a9578190505b6143bd6143b585614275565b83018261435c565b50505b505050565b600082821c905092915050565b60006143e3600019846008026143c5565b1980831691505092915050565b60006143fc83836143d2565b9150826002028217905092915050565b614415826130de565b67ffffffffffffffff81111561442e5761442d6134e7565b5b614438825461395a565b61444382828561437f565b600060209050601f8311600181146144765760008415614464578287015190505b61446e85826143f0565b8655506144d6565b601f19841661448486614260565b60005b828110156144ac57848901518255600182019150602085019450602081019050614487565b868310156144c957848901516144c5601f8916826143d2565b8355505b6001600288020188555050505b505050505050565b7f4552433732313a20617070726f766520746f2063616c6c657200000000000000600082015250565b60006145146019836130e9565b915061451f826144de565b602082019050919050565b6000602082019050818103600083015261454381614507565b9050919050565b7f4552433732313a207472616e7366657220746f206e6f6e20455243373231526560008201527f63656976657220696d706c656d656e7465720000000000000000000000000000602082015250565b60006145a66032836130e9565b91506145b18261454a565b604082019050919050565b600060208201905081810360008301526145d581614599565b9050919050565b7f436f756e7465723a2064656372656d656e74206f766572666c6f770000000000600082015250565b6000614612601b836130e9565b915061461d826145dc565b602082019050919050565b6000602082019050818103600083015261464181614605565b9050919050565b600081519050919050565b600082825260208201905092915050565b600061466f82614648565b6146798185614653565b93506146898185602086016130fa565b61469281613124565b840191505092915050565b60006080820190506146b26000830187613225565b6146bf6020830186613225565b6146cc6040830185613486565b81810360608301526146de8184614664565b905095945050505050565b6000815190506146f88161304f565b92915050565b60006020828403121561471457614713613019565b5b6000614722848285016146e9565b91505092915050565b7f4e487b7100000000000000000000000000000000000000000000000000000000600052601260045260246000fd5b7f4552433732313a206d696e7420746f20746865207a65726f2061646472657373600082015250565b60006147906020836130e9565b915061479b8261475a565b602082019050919050565b600060208201905081810360008301526147bf81614783565b9050919050565b7f4552433732313a20746f6b656e20616c7265616479206d696e74656400000000600082015250565b60006147fc601c836130e9565b9150614807826147c6565b602082019050919050565b6000602082019050818103600083015261482b816147ef565b905091905056fea264697066735822122089355a4bdbfc72c43b4f19be8ddef1c61f2c508d4dd16356ff7f75cb8e6d5cde64736f6c63430008120033",
  "linkReferences": {},
  "deployedLinkReferences": {}
}